:0E0000000C9485000C9400000C9400000C94ED
:10000E0000000C9400000C9400000C9400000C9462
:10001E0000000C9400000C9400000C9400000C9452
:10002E0000000C9400000C9400000C9400000C9442
:10003E0000000C9400000C9400000C9400000C9432
:10004E0000000C9400000C9400000C9400000C9422
:10005E0000000C9400000C9400000C9400000C9412
:10006E0000000C9400000C9400000C9400000C9402
:10007E0000000C9400000C9400000C9400000C94F2
:10008E0000000C9400000C9400001027E80364009C
:10009E000A00010000100001100001000000000025
:1000AE0000000000526F626F7420312C2072656167
:1000BE0064792E2E000A50574D206B616E616E3A98
:1000CE00200025640A0050574D206B6972693A2052
:1000DE00006B203D20256420006C203D20256420EF
:1000EE00000001002D4E414E00494E460000080012
:1000FE000300AA0001001009F0000000F894EE279A
:10010E00EFBBF1E0F5BFE5BFF8E1A895A4B7A77F77
:10011E00A4BFF0936000E09360008DE0A2E0BB27E7
:10012E00ED938A95E9F780E090E2A0E0B1E0ED93DF
:10013E000197E9F7ECEFF0E085919591009761F06A
:10014E00A591B59105901590BF01F00105900D9206
:10015E000197E1F7FB01F0CF8BBFE0E0EEBBEFEFD5
:10016E00EDBFE0E2EEBFC0E0D9E00C941A011A93A5
:10017E000A9300E010E0AA81A03311F400E010E031
:10018E00AA81A13311F401E010E0AA81A23311F487
:10019E0002E010E0AA81A33311F403E010E0AA817B
:1001AE00A43311F404E010E0AA81A53311F405E0A4
:1001BE0010E0AA81A63311F406E010E0AA81A7335D
:1001CE0011F407E010E0AA81A83311F408E010E062
:1001DE00AA81A93311F409E010E0F8011981088110
:1001EE0005C2AD81AB3279F4AC81AB3221F40E9401
:1001FE0070040E947804AC81AD3221F40E948C040C
:10020E000E9478040EC0AC81AB3221F40E9494049B
:10021E000E947804AC81AD3221F40E949C040E94AD
:10022E00780426960895E0E8E0936100E0E0E0931C
:10023E006100E2B9E1B9E5B9E0EFE4B9E0E0E8B9AF
:10024E00E0EFE7B9E0E0EBB9EAB9EEB9EDB9E1BB41
:10025E00E0BBE4BDE5BDE6BDE7BDE8BDE0938000D3
:10026E00E0938100E0938500E0938400E0938700A3
:10027E00E0938600E0938900E0938800E0938B0082
:10028E00E0938A00E0938D00E0938C00E093B6003B
:10029E00E093B000E093B100E093B200E093B300BE
:1002AE00E093B400E3EAE0939000ECE0E093910079
:1002BE00E0E0E0939500E0939400E0939700E093E4
:1002CE009600E09399000E94A404E0E0E0939A0067
:1002DE00E0939D00E0939C00E0936900E0936A0038
:1002EE00EDBBE0936B00E0936800E0936E00E0934B
:1002FE006F00E0937000E0937100E093C800E8E1B6
:10030E00E093C900E6E0E093CA00E0E0E093CD00A0
:10031E00E7E6E093CC00E0E8E0BFE0E0E0937B00AE
:10032E00E093D700E093D800E093DA00E093DE008C
:10033E00E093DF00E093DD0033244424E4E1F0E0B9
:10034E003E164F063CF4E4EFF1E00E94AA040E9430
:10035E00AE04F4CFE2EBF0E00E94B3040E94BA04C4
:10036E00A33211F00C945102A0910009A33211F0A6
:10037E000C9451020E94BA04A33411F00C94400262
:10038E00A0910009A33411F00C943F020E94BA040C
:10039E00A33421F411D1E093000969C0332444241D
:1003AE00EFE0F0E03E164F06BCF4E32DF42DEF5FC8
:1003BE00F64FA0910009A083A1E0B9E0A30DB41DF2
:1003CE00EC91A0910009EA1721F4F6D0E093000910
:1003DE00F3CF0E94AE04E4CF0E94C104FF93EF93CB
:1003EE000E94CB04AF91BF91EA0FFB1FFF93EF93D7
:1003FE00E0910709EA93BBDEAF91BF910E94D5044D
:10040E00FF93EF930E94E304AF91BF91EA0FFB1F9E
:10041E00FF93EF93E0910F09EA93A9DEAF91BF919D
:10042E00EA0FFB1FBE2ECF2EE3ECF0E00E94B304CA
:10043E00E0EDF0E0FA93EA93ED2DFE2D0E94ED042F
:10044E00E4EDF0E00E94B304E0EDF0E0FA93EA93FD
:10045E00EB2DFC2D0E94ED04E0910109EA93E09151
:10046E000909EA93EA92DA92CA92BA92BADE88CF70
:10047E0010C033244424EFE0F0E03E164F064CF457
:10048E00A1E0B9E0A30DB41DE0E3EC930E94AE042D
:10049E00F2CF6ACF0E94C104FF93EF930E94CB0468
:1004AE00AF91BF91EA0FFB1FFF93EF93E091070906
:1004BE00EA935DDEAF91BF910E94D504FF93EF9357
:1004CE000E94E304AF91BF91EA0FFB1FFF93EF93DE
:1004DE00E0910F09EA934BDEAF91BF91EA0FFB1F3C
:1004EE00BE2ECF2EA0910009A833D1F40E94700425
:1004FE00E6E40E94A404E4E60E94F6040E949C0432
:10050E000E94FB040E940705E0E04899E1E0F0E05C
:10051E005E0E6F1EE0E06599E1E0F0E07E0E8F1E4C
:10052E00A0910009A23371F40E949C04E6E40E949B
:10053E00A404E2E60E94F6040E9470040E94FB04EA
:10054E000E940705A0910009A03781F4EFEDF0E0BD
:10055E00FA93EA93E52DF62D0E94ED04E7EEF0E016
:10056E00FA93EA93E72DF82D0E94ED04A09100096D
:10057E00A63371F40E949404E4E60E94A404E2E619
:10058E000E94F6040E948C040E94FB040E94070540
:10059E00A0910009A43371F40E948C04E4E60E9439
:1005AE00A404E0E60E94F6040E9494040E94FB0458
:1005BE000E940705D3CEFFCFE091C800E078E1F3AB
:1005CE00E091CE000895E091C800E072E1F3E88179
:1005DE00E093CE0021960895EA81EA93F4DFA88194
:1005EE00B981ED91FD913196FE93EE932396089588
:1005FE0026970E94790510E0AC85BD85E0E0F0E01D
:10060E00ED93FC93EA89FB893196EA8BFB8B31974C
:10061E00E4912E2FE03011F40C942C04E12FE030F5
:10062E0039F4253211F411E002C00E940F050CC1FD
:10063E00E130A9F4253219F40E940F0504C112E02D
:10064E0040E000E02D3211F401E0FEC02B3211F437
:10065E004BE2FAC0203211F440E2F6C002C0E230A2
:10066E0039F450E013E0203311F40068EDC004C0FB
:10067E00E33011F00C942B04203310F02A3308F0E1
:10068E0007C0AAE05A9F502DE22FE0535E0FDCC048
:10069E00E22FE33649F40E941805E889F989A4810E
:1006AE00AA930E941E05CFC0E33741F40E9418059D
:1006BE000E9426050E945B041E2F0AC0E03761F4DB
:1006CE000E9418050E9426050E9465041E2F0860D0
:1006DE0002600F7730E035C0E43611F0E93611F4E0
:1006EE00046002C0E53731F4E8E9F0E0EE83FF8301
:1006FE0015E00DC0E83511F4086004C0E83711F0BC
:10070E000C942A04E2EAF0E0EE83FF8314E002FF89
:10071E0014C00E9418050E943005AB85AA233AF436
:10072E00EA85FB850E944805EA87FB874DE240304B
:10073E0011F01F5F01C00B7F04C00E9418050E94BC
:10074E00300500FD11C0151778F407FF08C002FF31
:10075E0004C00B7F242F115001C020E301C020E202
:10076E000E940F055150EFCF312F01FF17C03030CF
:10077E00A1F003FF06C0EE81FF812591EE83FF837A
:10078E0005C0AE81BF812D91AE83BF830E940F0540
:10079E00503009F051503150EACF4BC020E3EE817A
:1007AE00FF810E947005E887F987EE81FF813296FE
:1007BE00EE83FF83E885F985AA85BB85AE17BF0753
:1007CE0050F02F5FA885B985EA85FB85EA1BFB0BE8
:1007DE00EA87FB87EFCF2A3328F003FF02C0295F99
:1007EE0001C0295D04FD1AC0213320F4A885B98506
:1007FE00119709F409C0531710F000FF01C013C080
:10080E0020E207FF0BC020E3006102FF07C00B7F51
:10081E004A930E941E05503009F051500E940F0558
:10082E00503009F051503150A885B985129708F013
:10083E00B5CF00FF08C0503031F05150E0E2EA93DE
:10084E000E941E05F8CF10E0DDCEAC85BD850E945E
:10085E006C050E94800564960895FF92F82E2697E7
:10086E001A930A93DE0114960E9444058D01E0E06E
:10087E00EC83ED83EE83EF83DE0118960E94440530
:10088E000E946C05FA93EA931A930A93E3EFF2E04F
:10089E00FA93EA93FE013896FA93EA93A9DE198148
:1008AE0008812896FF900895A991B991EE27FF2708
:1008BE006D91662311F03196FBCF0895AA27BB27C1
:1008CE00E991F9910590002011F01196FBCFFD01F1
:1008DE0008952C9A2D982E982F9AE0E0E093990087
:1008EE000895E881E0939800E0E0E0939B00EA81B0
:1008FE00E0939A00EEE1F0E0FA93EA930E94380555
:10090E002C9A2D9A2E9A2F9A08952C9A2D982E9ACB
:10091E002F98E0E0E093990008952C982D9A2E9848
:10092E002F9AE0E0E093990008952C982D9A2E9A34
:10093E002F98E0E0E09399000895E0939800E0E0AE
:10094E00E0939B000895FA93EA930C943805E1E046
:10095E00F0E03E0E4F1E0895FA93EA9380E00E9457
:10096E003404229608950E94E302E0930009A091B8
:10097E0000090895E0910309EA930E94BE00A4E6DF
:10098E00B0E00E9459050895E0910509EA930E948E
:10099E00BE00AAE0B0E00E9459050895EA0FFB1FC1
:1009AE00DE2EEF2EE0910B09EA930E94BE00A4E624
:1009BE00B0E00E9459050895E0910D09EA930E9456
:1009CE00BE00AAE0B0E00E94590508950E944C05B1
:1009DE000E94740584E00E94340426960895E093E4
:1009EE009A00E2E3F0E0AFCFE4E6E0939800E0E0B7
:1009FE00E0939900E4E6E0939800E5E0F0E0A3CF01
:100A0E002C9A2D9A2E9A2F9AEDE5E09300090895CF
:100A1E002A93ED85FE85FA93EA93E989FA89099579
:100A2E000895E889F9893497E88BF98B0895ED8557
:100A3E00FE85FA93EA93E989FA8909950895A889BA
:100A4E00B98914960E946C05EE83FF83FA93EA939C
:100A5E000895A889B98914960E946C05EA87FB87C8
:100A6E000895E991F991309639F080EA9FE0019767
:100A7E00F1F7A8953197C9F708950024AF0DB01D71
:100A8E000895F195E195F04008956F2F660F660B6E
:100A9E00762F0895FA9FF02DEB9FF00DEA9FE02D33
:100AAE00F10D089504D0F6DF0EF4EBDF0895E8940F
:100ABE00F7FF02C0E6DF6894B7FF06C0A095B095B9
:100ACE00119600F8039400FA0895ED91FC91119798
:100ADE0008950590F491E02D08957A936A93FA9310
:100AEE00EA9308955A934A933A932A931A930A9340
:100AFE0008955D814C813B812A8119810881089579
:00000001FF
